{
    "contractName": "ZombieFactory",
    "abi": [
        {
            "anonymous": false,
            "inputs": [
                {
                    "indexed": false,
                    "internalType": "uint256",
                    "name": "zombieId",
                    "type": "uint256"
                },
                {
                    "indexed": false,
                    "internalType": "string",
                    "name": "name",
                    "type": "string"
                },
                {
                    "indexed": false,
                    "internalType": "uint256",
                    "name": "dna",
                    "type": "uint256"
                }
            ],
            "name": "NewZombie",
            "type": "event"
        },
        {
            "inputs": [
                {
                    "internalType": "string",
                    "name": "_name",
                    "type": "string"
                }
            ],
            "name": "createRandomZombie",
            "outputs": [],
            "stateMutability": "nonpayable",
            "type": "function"
        },
        {
            "inputs": [
                {
                    "internalType": "uint256",
                    "name": "",
                    "type": "uint256"
                }
            ],
            "name": "zombies",
            "outputs": [
                {
                    "internalType": "string",
                    "name": "name",
                    "type": "string"
                },
                {
                    "internalType": "uint256",
                    "name": "dna",
                    "type": "uint256"
                }
            ],
            "stateMutability": "view",
            "type": "function"
        }
    ],
    "bytecode": "60806040526010600081905561001690600a610071565b60015534801561002557600080fd5b50610161565b80825b600180861161003d5750610068565b81870482111561004f5761004f61014b565b8086161561005c57918102915b9490941c93800261002e565b94509492505050565b60006100806000198484610087565b9392505050565b60008261009657506001610080565b816100a357506000610080565b81600181146100b957600281146100c3576100f0565b6001915050610080565b60ff8411156100d4576100d461014b565b6001841b9150848211156100ea576100ea61014b565b50610080565b5060208310610133831016604e8410600b8410161715610123575081810a8381111561011e5761011e61014b565b610080565b610130848484600161002b565b8086048211156101425761014261014b565b02949350505050565b634e487b7160e01b600052601160045260246000fd5b610539806101706000396000f3fe608060405234801561001057600080fd5b50600436106100365760003560e01c80632052465e1461003b5780637bff0a0114610065575b600080fd5b61004e610049366004610394565b61007a565b60405161005c9291906103f4565b60405180910390f35b6100786100733660046102ea565b610136565b005b6002818154811061008a57600080fd5b90600052602060002090600202016000915090508060000180546100ad90610492565b80601f01602080910402602001604051908101604052809291908181526020018280546100d990610492565b80156101265780601f106100fb57610100808354040283529160200191610126565b820191906000526020600020905b81548152906001019060200180831161010957829003601f168201915b5050505050908060010154905082565b600061014182610151565b905061014d8282610195565b5050565b6000808260405160200161016591906103d8565b6040516020818303038152906040528051906020012060001c90506001548161018e91906104cd565b9392505050565b60408051808201909152828152602080820183905260028054600181018255600082905283518051919092027f405787fa12a823e0f2b7631cc41b3ba8828b3321ca811111fa75cd3aa3bb5ace01926101f2928492910190610251565b506020919091015160019182015560025460009161020f9161043f565b90507f88f026aacbbecc90c18411df4b1185fd8d9be2470f1962f192bf84a27d0704b781848460405161024493929190610416565b60405180910390a1505050565b82805461025d90610492565b90600052602060002090601f01602090048101928261027f57600085556102c5565b82601f1061029857805160ff19168380011785556102c5565b828001600101855582156102c5579182015b828111156102c55782518255916020019190600101906102aa565b506102d19291506102d5565b5090565b5b808211156102d157600081556001016102d6565b6000602082840312156102fb578081fd5b813567ffffffffffffffff80821115610312578283fd5b818401915084601f830112610325578283fd5b813581811115610337576103376104ed565b604051601f8201601f19908116603f0116810190838211818310171561035f5761035f6104ed565b81604052828152876020848701011115610377578586fd5b826020860160208301379182016020019490945295945050505050565b6000602082840312156103a5578081fd5b5035919050565b600081518084526103c4816020860160208601610462565b601f01601f19169290920160200192915050565b600082516103ea818460208701610462565b9190910192915050565b60006040825261040760408301856103ac565b90508260208301529392505050565b60008482526060602083015261042f60608301856103ac565b9050826040830152949350505050565b60008282101561045d57634e487b7160e01b81526011600452602481fd5b500390565b60005b8381101561047d578181015183820152602001610465565b8381111561048c576000848401525b50505050565b600181811c908216806104a657607f821691505b602082108114156104c757634e487b7160e01b600052602260045260246000fd5b50919050565b6000826104e857634e487b7160e01b81526012600452602481fd5b500690565b634e487b7160e01b600052604160045260246000fdfea26469706673582212206ecbdddec0e6f4eeab89e6667acb5b24525a90a159d372acb77ae83adfb8fcc564736f6c63430008030033",
    "sourcePath": "c:/BME/BlockChain/BlockchainHF/Contract.sol",
    "compiler": {
        "name": "solc",
        "version": "0.8.3+commit.8d00100c"
    },
    "functionHashes": {
        "createRandomZombie(string)": "7bff0a01",
        "zombies(uint256)": "2052465e"
    },
    "gasEstimates": {
        "creation": {
            "codeDepositCost": "267400",
            "executionCost": "infinite",
            "totalCost": "infinite"
        },
        "external": {
            "createRandomZombie(string)": "infinite",
            "zombies(uint256)": "infinite"
        },
        "internal": {
            "_createZombie(string memory,uint256)": "infinite",
            "_generateRandomDna(string memory)": "infinite"
        }
    }
}